:020000020000FC
:10000000B99ABA9AB89ABC9841E03DD022D00F93E1
:100010001F931FB71F9318E0001F10F0C09801C076
:10002000C09AC19AC1981A95B9F7C29AC2981F91FD
:100030001FBF1F910F91089526D0E9DF3CD026D035
:10004000E6DF39D026D0E3DF36D026D0E0DF33D06C
:1000500008955FEFB49B03D02ED05A95D1F70F339C
:10006000A9F00630B1F00B35B9F00F34C1F0063607
:10007000C1F00D36C1F00D37C1F00730C1F00F37B8
:10008000C1F0073601F00FE3C2DF089506E0BFDFDD
:1000900008950BE5BCDF08950FE4B9DF089506E687
:1000A00008950DE608950DE7089507E008950FE718
:1000B000089507E6089574E084E694E69A950000B2
:1000C000E9F78A95D1F77A95B9F7089574E08FEF3B
:1000D00096EF9A950000E9F78A95D1F77A95B9F7E6
:0400E0000895D4CFDC
:00000001FF
