:020000020000FC
:10000000B99ABA9AB89ABC9860E040E0C0E05DD076
:100010001ED0602F042B0F931F931FB71F9318E060
:10002000001F10F0C09801C0C09AC19AC1981A95DB
:10003000B9F7C29AC2981F911FBF1F910F91062F47
:100040000895C0E0C395B49905C068D0FBCFB49BB8
:10005000F8DFFDCFC43128F4CA3048F4CA3018F0B4
:10006000F6CF40E032C04030D9F0403821F0403087
:1000700011F04038A9F040E80F33B1F1063029F112
:100080000B3531F10F3439F1063641F10D3649F1B6
:100090000D3769F1073071F10F3779F1073681F1CA
:1000A00040E00F33A9F00630B1F00B35B9F00F3452
:1000B000C1F00636E1F00D36E9F00D37F1F007300A
:1000C000F9F00F3789F0073601F00FE3A2DFBFCF59
:1000D00006E09FDFBCCF0BE59CDFB9CF0FE499DFD3
:1000E000B6CF06E696DFB3CF07E693DFB0CF0DE6D7
:1000F00090DFADCF0DE78DDFAACF07E08ADFA7CF76
:100100000FE787DFA4CF74E084E694E69A950000B9
:10011000E9F78A95D1F77A95B9F7089574E08BECF1
:1001200096EF9A950000E9F78A95D1F77A95B9F795
:10013000AAE0B4E1BA950000E9F7AA95D1F70895CD
:02014000C7CF27
:00000001FF
