:020000020000FC
:10000000B99ABA9AB89ABC9841E0C0E058D01BD0CF
:100010000F931F931FB71F9318E0001F10F0C09895
:1000200001C0C09AC19AC1981A95B9F7C29AC298EC
:100030001F911FBF1F910F910895C0E0C395B49900
:1000400005C05AD0FBCFB49BF8DFFDCFCA3058F5BE
:10005000CA30A8F0F8CF0F33A9F1063021F10B35E3
:1000600029F10F3431F1063639F10D3641F10D37F2
:1000700061F1073069F10F3771F1073679F10F330C
:10008000A9F00630B1F00B35B9F00F34C1F00636E7
:10009000E1F00D36E9F00D37F1F00730F9F00F37E8
:1000A00089F0073601F00FE3B3DFCDCF06E0B0DF14
:1000B000CACF0BE5ADDFC7CF0FE4AADFC4CF06E69A
:1000C000A7DFC1CF07E6A4DFBECF0DE6A1DFBBCF20
:1000D0000DE79EDFB8CF07E09BDFB5CF0FE798DFD6
:1000E000B2CF74E084E694E69A950000E9F78A9529
:1000F000D1F77A95B9F7089574E08BEC96EF9A955D
:100100000000E9F78A95D1F77A95B9F7AAE0B4E14A
:0E011000BA950000E9F7AA95D1F70895C7CF78
:00000001FF
