:020000020000FC
:10000000B99ABA9AB89ABC9822D00F931F931FB787
:100010001F9318E0001F10F0C09801C0C09AC19A49
:10002000C1981A95B9F7C29AC2981F911FBF1F9124
:100030000F91089511D0E9DF23D010D0E6DF20D052
:100040000FD0E3DF1DD00ED0E0DF1AD0089534B119
:1000500033953A9501F500C00FE3089506E0089541
:100060000BE508950FE4089506E608950DE608955A
:100070000DE7089507E008950FE7089507E608954E
:1000800074E08FEF96EF9A950000E9F78A95D1F723
:080090007A95B9F70895E2CF5B
:00000001FF
