:020000020000FC
:10000000B99ABA9AB89A18D00F931F931FB71F9333
:1000100018E0001F10F0C09801C0C09AC19A0000FB
:10002000C19800001A95A9F7C29A0000C2981F91C2
:100030001FBF1F910F9108950CD0E6DF1ED00BD08B
:10004000E3DF1BD00AD0E0DF18D009D0DDDF15D008
:1000500008950FE3089506E008950BE508950FE471
:10006000089506E608950DE608950DE7089507E062
:1000700008950FE7089507E6089574E08FEF96EF6F
:100080009A950000E9F78A95D1F77A95B9F708951E
:00000001FF
