:020000020000FC
:10000000B99ABA9AB89ABC9841E0C0E064D01BD0C3
:100010000F931F931FB71F9318E0001F10F0C09895
:1000200001C0C09AC19AC1981A95B9F7C29AC298EC
:100030001F911FBF1F910F910895C0E0C395B49900
:1000400005C066D0FBCFB49BF8DFFDCFC431B8F557
:10005000CA3038F4CA3008F0F6CF4130D8F4403016
:1000600020F4413010F44030A8F440E00F33B1F1F7
:10007000063029F10B3531F10F3439F1063641F1F3
:100080000D3649F10D3769F1073071F10F3779F10C
:10009000073681F141E00F33A9F00630B1F00B359E
:1000A000B9F00F34C1F00636E1F00D36E9F00D3746
:1000B000F1F00730F9F00F3789F0073601F00FE360
:1000C000A7DFC1CF06E0A4DFBECF0BE5A1DFBBCF2A
:1000D0000FE49EDFB8CF06E69BDFB5CF07E698DFDB
:1000E000B2CF0DE695DFAFCF0DE792DFACCF07E0E3
:1000F0008FDFA9CF0FE78CDFA6CF74E084E694E60C
:100100009A950000E9F78A95D1F77A95B9F708959D
:1001100074E08BEC96EF9A950000E9F78A95D1F799
:100120007A95B9F7AAE0B4E1BA950000E9F7AA9583
:06013000D1F70895C7CFCE
:00000001FF
