:020000020000FC
:10000000B898B998BA9A93EA6CE83AE03CD046B30B
:100010004370542F2CD056B3537013D037D042D0E6
:1000200012D034D046B34370541709F4F4CF0DD036
:100030001030A1F01130B9F0123089F0133071F0A6
:10004000F6CFC29A0895C2980895403029F04330FF
:1000500019F0142F23E0122715270895DCCF6238FA
:10006000D1F26A50D8CF6A3FB1F2630FD4CFA2E089
:10007000B9E1C2E3CA950000E9F7BA950000C9F7F3
:10008000AA95B1F70895E2E0E3BF089573B780E061
:1000900083BF88B7826088BF92BF73BF88B781FF74
:1000A000FDCF089573B780E083BF88B7826088BFB3
:0C00B00062BF73BF88B781FFFDCF0895C9
:00000001FF
