:1000000096C0B0C0AFC0AEC0ADC0ACC0ABC0AAC09F
:10001000A9C0A8C0A7C0A6C0A5C0A4C0A3C0A2C0B4
:10002000A1C0A0C099C29EC09DC09CC09BC09AC0E8
:1000300099C098C000407A10F35A00A0724E180977
:100040000010A5D4E80000E87648170000E40B543F
:10005000020000CA9A3B000000E1F505000080960E
:100060009800000040420F000000A0860100000040
:10007000102700000000E8030000000064000000FA
:1000800000000A00000000000100000000002C76C3
:10009000D888DC674F0823DFC1DFAE59E1B1B796DE
:1000A000E5E3E453C63AE651997696E8E6C284263B
:1000B000EB898C9B62ED407C6FFCEFBC9C9F40F217
:1000C000BAA56FA5F490055A2AF75C936B6CF96793
:1000D0006DC11BFCE0E40D47FEF520E6B500D0ED58
:1000E000902E0300943577050080841E08000020C0
:1000F0004E0A000000C80C333333330F986E12835E
:100100001141EF8D2114893BE65516CFFEE6DB1831
:10011000D1844B381BF77C1D901DA4BBE4242032F6
:1001200084725E228100C9F124ECA1E53D271124EF
:100130001FBECFEFD4E0DEBFCDBF11E0A0E0B1E045
:10014000EEECFFE002C005900D92A035B107D9F7A3
:1001500021E0A0E5B1E001C01D92AB39B207E1F7A3
:1001600002D033C74DCFCF93DF93CDB7DEB7C156A3
:10017000D1090FB6F894DEBF0FBECDBF789425D25B
:1001800079D18FE2E0E0F1E0DE015F9601900D921F
:100190008A95E1F7CE014F966BD296D28B838B81F5
:1001A000873429F48B8149D212D126D10EC18B819B
:1001B0008D3409F0E2C08B8140D286D28C838C8151
:1001C0003CD282D28D838D8138D27ED28E838E8135
:1001D00034D27AD28C838C8130D276D28F838F8145
:1001E0002CD272D28887888528D2F1D0CE01825B4A
:1001F0009F4F2D81FC012083CE01825B9F4F2E817A
:10020000FC012183CE01825B9F4FFC011282CE0153
:100210008F5A9F4F2F81FC012083CE018F5A9F4F11
:100220002885FC012183CE018F5A9F4FFC01128249
:10023000CE01825B9F4F3ED49A878987CE018F5A29
:100240009F4F38D49C878B871A8219828DC0D4D057
:1002500089819A819C012F5F3F4F89859A85281754
:10026000390709F47CC04B855C8528EE33E0429F5A
:10027000C001439F900D529F900D1124092E000C38
:10028000AA0BBB0BBC01CD01DFD2DC01CB01898BFA
:100290009A8BAB8BBC8B20E030E04AEF54E4698949
:1002A0007A898B899C8984D3DC01CB018D8B9E8BD1
:1002B000AF8BB88F20E030E040E85FE36D897E8946
:1002C0008F89988D27D288232CF481E090E09A8F33
:1002D000898F3BC020E03FEF4FE757E46D897E896F
:1002E0008F89988D61D318163CF520E030E040E20C
:1002F00051E469897A898B899C895AD3DC01CB01C5
:10030000BC01CD0173D2DC01CB019A8F898F0FC064
:1003100088EC90E09C8F8B8F8B8D9C8D0197F1F7F3
:100320009C8F8B8F898D9A8D01979A8F898F898D5C
:100330009A8D892B69F713C06D897E898F89988D75
:1003400055D2DC01CB019A8F898F898D9A8D9E8F32
:100350008D8F8D8D9E8D0197F1F79E8F8D8F898169
:100360009A8101969A83898329813A8189859A8520
:10037000281739070CF46BCF28C08B81833529F5FA
:10038000CE018C5A9F4F2EE0EFE2F1E0DC010190AC
:100390000D922A95E1F7CE018C5A9F4F69D11E86A6
:1003A0001D8683E090E0988B8F878F859889092E32
:1003B000000CAA0BBB0BBC01CD0146D29B01AC01CA
:1003C0008D859E85BA01A9013ED001D0E6CECF939E
:1003D000DF9300D01F92CDB7DEB78AE09DE09A830D
:1003E00089831B82CE01019643D100000F900F90AC
:1003F0000F90DF91CF9108950F931F93CF93DF93C9
:10040000CDB7DEB782E591E047D08091520190915F
:100410005301A0915401B091550106E911E022E089
:1004200042E0BC01CD0127D38DE391E021D186E9E3
:1004300091E01ED18CE491E01BD10000DF91CF91BF
:100440001F910F910895CF93DF9300D000D000D07B
:10045000CDB7DEB79A8389834B835C836D837E83BC
:10046000000026960FB6F894DEBF0FBECDBFDF9119
:10047000CF910895CF93DF93CDB7DEB78CE790E0AF
:1004800020E4FC0120838AE790E027E8FC01208338
:100490000000DF91CF910895CF93DF9300D000D07B
:1004A000CDB7DEB79C838B832ED09A8389838981D5
:1004B0009A81092E000CAA0BBB0BBC01CD01C4D143
:1004C000DC01CB0120E030E040EA50E4BC01CD018A
:1004D0006FD2DC01CB0120E030EC4FE754E4BC01EB
:1004E000CD011CD1DC01CB012B813C81F901808342
:1004F0009183A283B38300000F900F900F900F9011
:10050000DF91CF910895CF93DF93CDB7DEB78CE71E
:1005100090E02CE730E0F9012081287FFC01208366
:100520008AE790E02AE730E0F90120812064FC01AD
:10053000208300008AE790E0FC018081882F90E012
:1005400080749927892BB1F788E790E0FC018081BE
:100550009181DF91CF9108951F920F9200905F00DB
:100560000F9211242F938F939F93EF93FF93CF9329
:10057000DF931F92CDB7DEB786EC90E0FC0180815F
:10058000898380915001882F90E08A5A9E4F29815B
:10059000FC012083809150018F3319F41092500197
:1005A00005C0809150018F5F8093500100000F9033
:1005B000DF91CF91FF91EF919F918F912F910F90AC
:1005C00000925F000F901F901895CF93DF9300D09B
:1005D000CDB7DEB783E390E09A83898385EC90E022
:1005E000FC01108284EC90E02981FC01208381ECE5
:1005F00090E028E9FC01208382EC90E026E0FC01F9
:1006000020838AE290E02AE230E0F9012081226032
:10061000FC0120838AE290E02AE230E0F9012081A7
:100620002E7FFC0120831092500110925101000096
:100630000F900F90DF91CF910895CF93DF931F928A
:10064000CDB7DEB78983000080EC90E0FC018081AB
:10065000882F90E080729927892BB1F386EC90E087
:100660002981FC01208300000F90DF91CF91089534
:10067000CF93DF9300D0CDB7DEB79A83898318C0BC
:10068000000080EC90E0FC018081882F90E0807277
:100690009927892BB1F326EC30E089819A81AC014E
:1006A0004F5F5F4F5A834983FC018081F90180834A
:1006B00089819A81FC018081882311F700000F90C5
:1006C0000F90DF91CF910895CF93DF931F92CDB715
:1006D000DEB7000090915101809150019817D1F33D
:1006E00080915101882F90E08A5A9E4FFC018081B1
:1006F0008983809151018F3319F41092510105C003
:10070000809151018F5F8093510189810F90DF911A
:10071000CF910895D4D008F481E008950CD00AC197
:1007200002D140F0F9D030F021F45F3F19F0EBC076
:10073000511134C1EEC00FD198F39923C9F3552359
:10074000B1F3951B550BBB27AA27621773078407C4
:1007500038F09F5F5F4F220F331F441FAA1FA9F37A
:1007600033D00E2E3AF0E0E830D091505040E6956C
:10077000001CCAF729D0FE2F27D0660F771F881FCD
:10078000BB1F261737074807AB07B0E809F0BB0BBC
:10079000802DBF01FF2793585F4F2AF09E3F5105E0
:1007A00068F0B1C0FBC05F3FECF3983EDCF3869588
:1007B00077956795B795F7959F5FC9F7880F911D56
:1007C0009695879597F90895E1E0660F771F881F42
:1007D000BB1F621773078407BA0720F0621B730BF5
:1007E000840BBA0BEE1F88F7E0950895BCD088F013
:1007F0009F5790F0B92F9927B751A0F0D1F0660F0D
:10080000771F881F991F1AF0BA95C9F712C0B13027
:1008100081F0C3D0B1E00895C0C0672F782F88273A
:10082000B85F39F0B93FCCF3869577956795B39566
:10083000D9F73EF490958095709561957F4F8F4FD5
:100840009F4F0895E89409C097FB3EF490958095DA
:10085000709561957F4F8F4F9F4F9923A9F0F92F86
:1008600096E9BB279395F695879577956795B79504
:10087000F111F8CFFAF4BB0F11F460FF1BC06F5FEA
:100880007F4F8F4F9F4F16C0882311F096E911C0FC
:10089000772321F09EE8872F762F05C0662371F01D
:1008A00096E8862F70E060E02AF09A95660F771F31
:1008B000881FDAF7880F9695879597F90895990F0D
:1008C0000008550FAA0BE0E8FEEF16161706E8071A
:1008D000F907C0F012161306E407F50798F0621B3B
:1008E000730B840B950B39F40A2661F0232B242B10
:1008F000252B21F408950A2609F4A140A6958FEF2F
:10090000811D811D089597F99F6780E870E060E080
:1009100008959FEF80EC089500240A941616170698
:1009200018060906089500240A94121613061406E0
:1009300005060895092E0394000C11F4882352F043
:10094000BB0F40F4BF2B11F460FF04C06F5F7F4FFB
:100950008F4F9F4F089557FD9058440F551F59F0E2
:100960005F3F71F04795880F97FB991F61F09F3F9C
:1009700079F087950895121613061406551FF2CFC5
:100980004695F1DF08C0161617061806991FF1CF15
:1009900086957105610508940895E894BB2766273C
:1009A0007727CB0197F908958ADF08F48FEF089530
:1009B0000BD0C0CFB1DF28F0B6DF18F0952309F0D7
:1009C000A2CFA7CF1124EACFC6DFA0F3959FD1F322
:1009D000950F50E0551F629FF001729FBB27F00DED
:1009E000B11D639FAA27F00DB11DAA1F649F662742
:1009F000B00DA11D661F829F2227B00DA11D621F91
:100A0000739FB00DA11D621F839FA00D611D221F4A
:100A1000749F3327A00D611D231F849F600D211D2E
:100A2000822F762F6A2F11249F5750408AF0E1F0D1
:100A300088234AF0EE0FFF1FBB1F661F771F881F1A
:100A400091505040A9F79E3F510570F05CCFA6CF62
:100A50005F3FECF3983EDCF3869577956795B79505
:100A6000F795E7959F5FC1F7FE2B880F911D96952F
:100A7000879597F90895EF920F931F93CF93DF9384
:100A8000E80147FD02C034E001C034E1042E000C4F
:100A9000550B57FF03C0519541955109E32E022F85
:100AA000242FAE012CD0CE01DF91CF911F910F9159
:100AB000EF900895FC0188279927E894219120322E
:100AC000E9F3293010F02E30C8F32B3239F02D32F3
:100AD00031F4689403C00BD0820F911D21912053F3
:100AE0002A30C8F31EF4909581959F4F08957AE0BF
:100AF000979F902D879F802D910D11240895A9E037
:100B0000B0E0E4E8F5E030C26A01122FB02E2BE32A
:100B1000201720F0FF24F394F00E02C02CE3F22EF5
:100B20000F2D27E0AE014F5F5F4F40D1BC014981DF
:100B3000842F8970813031F0E1FC06C0E0FE06C0F0
:100B400090E205C09DE203C09BE201C090E05E2DF3
:100B5000507143FF3CC0911102C083E001C084E0AA
:100B6000811718F4212F281B01C020E051110BC060
:100B7000F601822F30E2882319F031938150FBCFA8
:100B8000C20ED11C20E0992329F0D6019C93F601D6
:100B900031966F01C6010396E2FE0AC03EE4D6011B
:100BA0003C9341E411964C93119712963C9306C0E6
:100BB0003EE6F601308341E641833283FC01322F69
:100BC00040E2332309F442C041933150FACF42FF4F
:100BD00044C0911102C083E001C084E0811718F481
:100BE000212F281B01C020E051110BC0F601822FDC
:100BF00030E2882319F031938150FBCFC20ED11C13
:100C000020E0992329F0D6019C93F60131966F01DB
:100C1000C6010396E2FE0BC039E4D6013C933EE4E4
:100C200011963C93119736E412963C9307C039E62F
:100C3000F60130833EE6318336E63283FC01322F03
:100C400040E2332319F041933150FBCFFC01E20F16
:100C5000F11D10828EEF9FEFA6C021E030E09111D0
:100C600002C020E030E0161617061CF4FB01319696
:100C700002C0E1E0F0E02E0F3F1FBB2021F0EB2D82
:100C8000F0E0319602C0E0E0F0E02E0F3F1FE12FD0
:100C9000F0E02E173F071CF4121B212F01C020E0AB
:100CA0008E2D887159F4F601822F30E2882319F0D5
:100CB00031938150FBCFC20ED11C20E0992329F043
:100CC000D6019C93F60131966F0151110BC0F601CC
:100CD000822F90E3882319F091938150FBCFC20EAD
:100CE000D11C20E00F2D060F9A81342F307144FF64
:100CF00003C0913309F40150101624F4093018F0A0
:100D000008E001C001E0AB0177FF02C040E050E025
:100D1000FB01E41BF50BA1E0B0E0AC0FBD1FEA0F37
:100D2000FB1F8EE2A82E4B01801A91080B2D10E0BC
:100D30001195019511094F3FBFEF5B0721F4D601D3
:100D4000AC9211966D01641775072CF08416950608
:100D500014F4818101C080E3415051093196D601DC
:100D600011967D014017510724F0D6018C9367013D
:100D7000E2CF6417750739F4963320F4953319F4EC
:100D8000311101C081E3F6018083F701822F90E2E7
:100D9000882319F091938150FBCFF701E20FF11DE9
:100DA000108280E090E02996ECE0FAC0283008F04C
:100DB00027E03327DA01990F311D87FD91600096F6
:100DC0006105710539F432602E5F3D9330E32A9559
:100DD000E1F708959F3F30F080387105610509F013
:100DE0003C5F3C5F3D93913008F08068911DDF933C
:100DF000CF931F930F93FF92EF92192F987F9695A1
:100E0000E92F96959695E90FFF27E257FF4F99270F
:100E10003327EE24FF24A701E701059008940794E7
:100E200028F4360FE71EF81E491F511D660F771F65
:100E3000881F991F0694A1F70590079428F4E70EE0
:100E4000F81E491F561FC11D770F881F991F661F67
:100E50000694A1F70590079428F4F80E491F561F31
:100E6000C71FD11D880F991F661F771F0694A1F712
:100E70000590079420F4490F561FC71FD81F990FDC
:100E8000661F771F881F0694A9F784911095177025
:100E900041F0D695C79557954795F794E7941A95DD
:100EA000C1F7E4E3F0E068941590159135916591F0
:100EB000959105907FE27395E118F10A430B560B6B
:100EC000C90BD009C0F7E10CF11E431F561FC91F03
:100ED000D01D7EF4703311F48A95E6CFE89401506A
:100EE00030F0080F0AF40027021708F4202F23958A
:100EF000022F7A3328F079E37D932A95E9F710C021
:100F00007D932A9589F60694979567953795179559
:100F10001794E118F10A430B560BC90BD00998F04E
:100F200023957E9173957A3308F070E37C932013B8
:100F3000B8F77E9170617D9330F0839571E37D9376
:100F400070E32A95E1F71124EF90FF900F911F9124
:100F5000CF91DF91992787FD909508952F923F9229
:100F60004F925F926F927F928F929F92AF92BF92B9
:100F7000CF92DF92EF92FF920F931F93CF93DF9365
:100F8000CDB7DEB7CA1BDB0B0FB6F894DEBF0FBEC2
:100F9000CDBF09942A88398848885F846E847D840F
:100FA0008C849B84AA84B984C884DF80EE80FD8011
:100FB0000C811B81AA81B981CE0FD11D0FB6F89487
:0E0FC000DEBF0FBECDBFED010895F894FFCF48
:100FCE0048692077656C636F6D6520746F20636868
:100FDE00696C6927730A0D2D2D2D2D2D2D2D2D2D7F
:100FEE002D2D2D2D2D2D2D2D2D2D2D2D0A0D007947
:100FFE006F7520747970656420530A0D0041444367
:10100E0020566F6C74616765203D2000560A0D00F6
:00000001FF
