:020000020000FC
:1000000020982198229A559A239A259A52983B9A99
:100010003A9A399A389AD0E02D98A1D02D9A0DC0ED
:100020004443203D20004D6F646520413A2000008C
:100030004D6F646520423A20000017D089D079E9DD
:1000400078BD00C04A9B08D053B15370F3D043B180
:100050004370541741F5F6CFA1E0DA272D98C8D0A8
:10006000BBD02D9AD03009F405C0ABD0E6E2F0E069
:1000700006D00895A6D0E0E3F0E001D00895059001
:10008000002039F0029408B8BDD0029408B8BAD064
:10009000F6CF0895A1D0E0E2F0E0F1DF05D0E0E096
:1000A000F1E026D008952FC068B5669508F004C029
:1000B000A5E3A093030104C0A0E3A093030100C043
:1000C000062F0F70162F107F12952AE030E0B9D05E
:1000D00040E3E40EE0920101B4D040E3E40EE0928C
:1000E000000140E0409304014EE240930201089574
:1000F0000190002039F0029408B884D0029408B826
:1001000081D0F6CF089509D0103081F01130C1F0C0
:10011000123069F0133051F0F6CF403029F04330FF
:1001200019F0142F23E01227152708958BCFA8B5B7
:10013000B7B5AB1709F486CFA395A8BDABDF82CFC7
:10014000A8B5AA2309F47ECFAA95A8BDA3DF7ACFCC
:10015000E3E2E4BDE9E0E5BDE8ECE7BD089558D091
:10016000A3E050D05FD0A3E0A8B94CD063D0A3E007
:10017000A8B948D05FD0A2E0A8B944D053D0A2E03B
:10018000A8B940D057D0A8E0A8B93CD053D0A0E03F
:10019000A8B938D04FD0A8E0A8B934D04BD028D0D7
:1001A000A0E0A8B92FD046D0A6E0A8B92BD03AD06D
:1001B000A0E0A8B927D03ED0ACE0A8B923D032D077
:1001C00008952D9837D0ACE0A8B91CD033D0A0E06A
:1001D000A8B918D02D9A08952D982CD0A8E0A8B9C8
:1001E00011D028D0A0E0A8B90DD01CD02D9A089528
:1001F00021D0A0E0A8B906D01DD0A1E0A8B902D0B6
:1002000011D008952B9816D02B9A14D02B980895BE
:1002100026E03FE042EF4A95F1F73A95E1F72A955B
:10022000D1F7089525E332EF3A95F1F72A95E1F7F2
:100230000000089524E033E13A95F1F72A95E1F7BB
:100240000895EE24FF1841E1001F111F4A9509F49B
:100250000895EE1CFF1CE21AF30A20F4E20EF31ECE
:080260008894F2CF0894F0CF5E
:00000001FF
