:020000020000FC
:1000000020982198229A559A239A259A52983B9A99
:100010003A9A399A389AD0E02D989AD02D9A0DC0F4
:100020004443203D20004D6F646520413A2000008C
:100030004D6F646520423A20000013D082D074E6F0
:1000400078BD4DC043B14370542FC2D0C1D02D9A5A
:1000500004E008B9B7D0BCD001E008B9B3D0B8D03B
:100060000895E0E2F0E01FD02D98C4D0ACE0A8B92C
:10007000A9D0C0D0A0E0A8B9A5D02D9AE6E2F0E0C2
:1000800012D02DC0E0E2F0E00ED02D98B3D0ACE05D
:10009000A8B998D0AFD0A0E0A8B994D02D9AE0E349
:1000A000F0E001D01CC00590002039F0029408B89F
:1000B00089D0029408B886D0F6CF08950190002028
:1000C00039F0029408B87ED0029408B87BD0F6CFFD
:1000D0000895A1E0DA27D03021F6D4CF08954A9BC5
:1000E000F8DF53B1537010D011D043B1437054179F
:1000F00009F4F5CF0DD01030A1F01130D9F0123045
:1001000089F0133071F0F6CF2A9A08952A9808954D
:10011000403029F0433019F0142F23E0122715271F
:100120000895DDCFA8B5B7B5AB1709F4D8CFA3951F
:10013000A8BDD5CFA8B5AA2309F4D1CFAA95A8BD4B
:10014000CECFE3E2E4BDE9E0E5BDE8ECE7BD08952C
:100150003FD0A3E0A8B936D045D0A3E0A8B932D0AB
:1001600049D0A3E0A8B92ED045D0A2E0A8B92AD0A2
:1001700039D0A2E0A8B926D03DD0A8E0A8B922D0B5
:1001800039D0A0E0A8B91ED035D0A8E0A8B91AD0BF
:1001900031D0A0E0A8B916D02DD0A1E0A8B912D0D6
:1001A00021D0A0E0A8B90ED025D0A6E0A8B90AD0E9
:1001B00019D0A0E0A8B906D01DD0ACE0A8B902D0F3
:1001C00011D008952B9816D02B9A14D02B980895FF
:1001D00026E03FE042EF4A95F1F73A95E1F72A959C
:1001E000D1F7089525E332EF3A95F1F72A95E1F733
:1001F0000000089524E033E13A95F1F72A95E1F7FC
:0202000008955F
:00000001FF
