:020000020000FC
:1000000020982198229A559A51985298239A259A85
:1000100053983B9A3A9A399A389AD0E02D98B3D0AF
:100020002D9A0DC04443203D20004D6F6465204152
:100030003A2000004D6F646520423A2000002CD029
:100040009BD079E978BD01D014C049E0409381008C
:100050004FEF409389004093880044E0409368004C
:1000600044E040931B0046E040936D0008951895CE
:1000700018954B9B08D053B15370F0D043B14370E7
:10008000541741F5F6CFA1E0DA272D98C5D0B8D0A6
:100090002D9AD03009F405C0A8D0EAE2F0E006D0ED
:1000A0000895A3D0E4E3F0E001D008950590002086
:1000B00039F0029408B8BAD0029408B8B7D0F6CF95
:1000C00008959ED0E4E2F0E0F1DF05D0E0E0F1E059
:1000D00023D008952CC068B5669508F004C0A5E348
:1000E000A093030104C0A0E3A093030100C0062F66
:1000F00010E02AE030E0B9D040E3E40EE0920101E4
:10010000B4D040E3E40EE092000140E040930401EB
:100110004EE24093020108950190002039F00294CC
:1001200008B884D0029408B881D0F6CF089509D0D9
:10013000103081F01130C1F0123069F0133051F0FD
:10014000F6CF403029F0433019F0142F23E0122766
:10015000152708958ECFA8B5B7B5AB1709F489CF89
:10016000A395A8BDAEDF85CFA8B5AA2309F481CF9A
:10017000AA95A8BDA6DF7DCFE3E2E4BDE9E0E5BD39
:10018000E8ECE7BD089558D0A3E050D05FD0A3E0DD
:10019000A8B94CD063D0A3E0A8B948D05FD0A2E002
:1001A000A8B944D053D0A2E0A8B940D057D0A8E015
:1001B000A8B93CD053D0A0E0A8B938D04FD0A8E01F
:1001C000A8B934D04BD028D0A0E0A8B92FD046D0C1
:1001D000A6E0A8B92BD03AD0A0E0A8B927D03ED04D
:1001E000ACE0A8B923D032D008952D9837D0ACE038
:1001F000A8B91CD033D0A0E0A8B918D02D9A089582
:100200002D982CD0A8E0A8B911D028D0A0E0A8B98A
:100210000DD01CD02D9A089521D0A0E0A8B906D009
:100220001DD0A1E0A8B902D011D008952B9816D006
:100230002B9A14D02B98089526E03FE042EF4A9580
:10024000F1F73A95E1F72A95D1F7089525E332EFD2
:100250003A95F1F72A95E1F70000089524E033E19B
:100260003A95F1F72A95E1F70895EE24FF1841E158
:10027000001F111F4A9509F40895EE1CFF1CE21A95
:10028000F30A20F4E20EF31E8894F2CF0894F0CF24
:00000001FF
