:020000020000FC
:1000000020982198229A239A259A3B9A3A9A399ACB
:10001000389A93EA6CE831E064EB93D007D0FFCFD5
:1000200061D043B14370542F51D01CC02D9AA1E42C
:10003000A8B9E3D0DBD0A9E0A8B9DFD0BED008953D
:10004000522082E0E0E4F0E02D9AC895029408B8CE
:10005000D4D0CCD0029408B8D0D0C8D031968A95EC
:10006000A1F7089553B1537014D043D04ED013D09C
:1000700058D03FD043B14370541709F4F3CF0DD09B
:100080001030A1F01130D9F0123089F0133071F036
:10009000F6CF2A9A08952A980895403029F04330DF
:1000A00019F0142F23E0122715270895DBCFA8B5E8
:1000B000B7B5AB1709F4D6CFA395A8BDD3CFA8B5D4
:1000C000AA2309F4CFCFAA95A8BDCCCFA2E0B9E16D
:1000D000C2E3CA950000E9F7BA950000C9F7AA95EE
:1000E000B1F70895E3E2E4BDE9E0E5BDE8ECE7BD82
:1000F000089575B580E085BD85B3816085BB96BDEB
:1001000075BD85B380FFFDCF089575B580E085BDD1
:1001100085B3816085BB66BD75BD85B380FFFDCFAE
:10012000089575B580E085BD85B3816085BB362FA8
:100130000FEF3258031B06BD75BD85B380FFFDCFA1
:1001400008953BD028D043D026D049D024D047D0E2
:100150001DD03DD01BD043D027D041D00FD03FD0B1
:1001600023D03DD00BD03BD00DD031D007D037D0ED
:1001700017D02DD003D033D01CD00895A0E02D98F7
:10018000A8B93BD0A1E02D98A8B937D0A2E02D980E
:10019000A8B933D00895A3E02D98A8B92ED008951A
:1001A000A6E02D98A8B929D0A8E02D98A8B925D007
:1001B0000895ACE02D98A8B920D026E03FE042EFAA
:1001C0004A95F1F73A95E1F72A95D1F7089525E395
:1001D00032EF3A95F1F72A95E1F70000089524E00F
:1001E00033E13A95F1F72A95E1F7089523E039E0F4
:1001F0003A95F1F72A95E1F708952B98F0DF2B9ABD
:04020000EEDF089590
:00000001FF
