:020000020000FC
:1000000020982198229A559A239A259A52983B9A99
:100010003A9A399A389AD0E02D987DD02D9A0DC011
:100020004443203D20004D6F646520413A2000008C
:100030004D6F646520423A20000018D065D074E608
:1000400078BD00C04A9B09D053B1537040D041D015
:1000500043B14370541789F5F5CFA1E0DA272D9805
:10006000A3D096D02D9AD03009F406C00BD085D0FD
:10007000E6E2F0E00CD0089505D07FD0E0E3F0E0B8
:1000800006D008952D9AE0E2F0E001D008950590A1
:10009000002039F0029408B891D0029408B88ED0AC
:1000A000F6CF08950190002039F0029408B886D068
:1000B000029408B883D0F6CF08950DD01030A1F087
:1000C0001130D9F0123089F0133071F0F6CF2A9A3E
:1000D00008952A980895403029F0433019F0142FDC
:1000E00023E0122715270895ADCFA8B5B7B5AB17F4
:1000F00009F4A8CFA395A8BDA5CFA8B5AA2309F454
:10010000A1CFAA95A8BD9ECFE3E2E4BDE9E0E5BD9D
:10011000E8ECE7BD089558D0A3E050D05FD0A3E04D
:10012000A8B94CD063D0A3E0A8B948D05FD0A2E072
:10013000A8B944D053D0A2E0A8B940D057D0A8E085
:10014000A8B93CD053D0A0E0A8B938D04FD0A8E08F
:10015000A8B934D04BD028D0A0E0A8B92FD046D031
:10016000A6E0A8B92BD03AD0A0E0A8B927D03ED0BD
:10017000ACE0A8B923D032D008952D9837D0ACE0A8
:10018000A8B91CD033D0A0E0A8B918D02D9A0895F2
:100190002D982CD0A8E0A8B911D028D0A0E0A8B9FB
:1001A0000DD01CD02D9A089521D0A0E0A8B906D07A
:1001B0001DD0A1E0A8B902D011D008952B9816D077
:1001C0002B9A14D02B98089526E03FE042EF4A95F1
:1001D000F1F73A95E1F72A95D1F7089525E332EF43
:1001E0003A95F1F72A95E1F70000089524E033E10C
:0A01F0003A95F1F72A95E1F708951A
:00000001FF
