:020000020000FC
:1000000020982198229A239A259A3B9A3A9A399ACB
:10001000389A93EA6CE831E060EF89D00ED05AD07C
:1000200043B14370542F4AD01BC0A4E0A8B9D4D028
:10003000A1E0A8B9D1D0B7D0089548656C6C6F2005
:1000400088E0EAE3F0E0C895029408B8C5D036D05D
:10005000029408B8C1D032D031968A95A1F708959C
:1000600053B1537014D03BD046D013D050D037D0BA
:1000700043B14370541709F4F3CF0DD01030A1F001
:100080001130B9F0123089F0133071F0F6CF2A9A9E
:1000900008952A980895403029F0433019F0142F1C
:1000A00023E0122715270895DBCF6238C9F261508B
:1000B000D7CF31E06F3FA1F2630FD2CFA2E0B9E119
:1000C000C2E3CA950000E9F7BA950000C9F7AA95FE
:1000D000B1F70895E3E0E4BDE9E0E5BD089575B545
:1000E00080E085BD85B3816085BB96BD75BD85B358
:1000F00080FFFDCF089575B580E085BD85B3816033
:1001000085BB66BD75BD85B380FFFDCF089575B510
:1001100080E085BD85B3816085BB362F0FEF3258F7
:10012000031B06BD75BD85B380FFFDCF08953BD091
:1001300028D043D026D049D024D047D01DD03DD0A0
:100140001BD043D027D041D00FD03FD023D03DD0BB
:100150000BD03BD00DD031D007D037D017D02DD019
:1001600003D033D01CD00895A0E02D98A8B934D086
:10017000A1E02D98A8B930D0A2E02D98A8B92CD034
:100180000895A3E02D98A8B927D00895A6E02D984A
:10019000A8B922D0A8E02D98A8B91ED00895ACE047
:1001A0002D98A8B919D026E03FE042EF4A95F1F723
:1001B0003A95E1F72A95D1F7089525E332EF3A957C
:1001C000F1F72A95E1F70000089524E033E13A952C
:1001D000F1F72A95E1F708952B98F7DF2B9AF5DFD1
:0401E0002B980895BB
:00000001FF
