:020000020000FC
:1000000020982198229A239A259A3B9A3A9A399ACB
:10001000389A93EA6CE831E064EB8DD04443203D9C
:100020002000ECE1F0E007D0FFCF56D043B14370A1
:10003000542F46D017C0B7D02D9AA3E0A8B9D3D07B
:10004000B2D0A3E0A8B9CFD0AED008952D9A059034
:10005000002039F0029408B8C6D0029408B8C3D082
:10006000F6CF089553B1537014D03DD048D013D07B
:1000700052D039D043B14370541709F4F3CF0DD0A7
:100080001030A1F01130B9F0123089F0133071F056
:10009000F6CF2A9A08952A980895403029F04330DF
:1000A00019F0142F23E0122715270895DBCF6238AB
:1000B000C9F26150D7CF31E0683CA1F2630FD2CFD3
:1000C000A2E0B9E1C2E3CA950000E9F7BA950000E1
:1000D000C9F7AA95B1F70895E3E2E4BDEAE0E5BD0A
:1000E000E8ECE7BD089575B580E085BD85B3816016
:1000F00085BB96BD75BD85B380FFFDCF089575B5F1
:1001000080E085BD85B3816085BB66BD75BD85B367
:1001100080FFFDCF089575B580E085BD85B3816012
:1001200085BB362F0FEF3258031B06BD75BD85B357
:1001300080FFFDCF089537D024D03FD022D045D0C6
:1001400020D043D019D039D017D03FD023D03DD0C4
:100150000BD03BD00DD031D007D037D017D02DD019
:1001600003D033D01CD00895A0E02D98A8B93BD07F
:10017000A1E02D98A8B937D0A2E02D98A8B933D026
:100180000895A3E02D98A8B92ED00895A6E02D9843
:10019000A8B929D0A8E02D98A8B925D00895ACE039
:1001A0002D98A8B920D026E03FE042EF4A95F1F71C
:1001B0003A95E1F72A95D1F7089525E332EF3A957C
:1001C000F1F72A95E1F70000089524E033E13A952C
:1001D000F1F72A95E1F7089523E039E03A95F1F730
:1001E0002A95E1F708952B98F0DF2B9AEEDF2B98F4
:0201F000089570
:00000001FF
