:020000020000FC
:1000000020982198229A559A239A259A3B9A3A9AAF
:10001000399A389A2D9867D02D9A4443203D200074
:10002000EAE1F0E013D058D074E678BD25C043B1C2
:100030004370542F98D097D02D9A04E008B98DD0F2
:1000400092D001E008B989D08ED0089505900020A3
:1000500039F0029408B881D0029408B87ED0F6CF67
:1000600008950190002039F0029408B876D00294E7
:1000700008B873D0F6CF089553B1537010D011D093
:1000800043B14370541709F4F7CF0DD01030A1F0ED
:100090001130D9F0123089F0133071F0F6CF2A9A6E
:1000A00008952A980895403029F0433019F0142F0C
:1000B00023E0122715270895DFCFA8B5B7B5AB17F2
:1000C00009F4DACFA395A8BDD7CFA8B5AA2309F420
:1000D000D3CFAA95A8BDD0CFE3E2E4BDE9E0E5BD6A
:1000E000E8ECE7BD08953FD0A3E0A8B936D045D0ED
:1000F000A3E0A8B932D049D0A3E0A8B92ED045D00A
:10010000A2E0A8B92AD039D0A2E0A8B926D03DD023
:10011000A8E0A8B922D039D0A0E0A8B91ED035D027
:10012000A8E0A8B91AD031D0A0E0A8B916D02DD037
:10013000A1E0A8B912D021D0A0E0A8B90ED025D056
:10014000A6E0A8B90AD019D0A0E0A8B906D01DD061
:10015000ACE0A8B902D011D008952B9816D02B9AF4
:1001600014D02B98089526E03FE042EF4A95F1F72E
:100170003A95E1F72A95D1F7089525E332EF3A95BC
:10018000F1F72A95E1F70000089524E033E13A956C
:08019000F1F72A95E1F708954B
:00000001FF
