:020000020000FC
:0400000019C05EC005
:1000340020982198229A559A539A239A259A52984D
:10004400519852983B9A3A9A399A389AD0E02D9816
:10005400BDD02D9A1BC04443203D20004D6F6465E4
:1000640020413A2000004D6F646520423A20000090
:10007400202500004F4B202020202000414C4152DD
:100084004D2020004C4F572052504D0098D074E61C
:1000940078BD03D035D012D009C061E06DBB6BE0F0
:1000A40060936900789408951895189553B1537026
:1000B400F8D043B14370541779F5F8CFA1E0DA27AB
:1000C4002D982D9AD03009F408C0B2D0E0E6F0E0C3
:1000D4000CD0E0E8F0E009D01895AAD0EAE6F0E008
:1000E40004D0E8E8F0E001D018950590002039F03C
:1000F400029408B8BED0029408B8BBD0F6CF0895D5
:10010400A2D0EAE5F0E0F1DF08D0E0E0F1E026D0AB
:10011400E4E7F0E0EADF08952CC068B5669508F0DE
:1001240004C0A5E3A093030104C0A0E3A0930301CA
:1001340000C0062F10E02AE030E0BAD040E3E40E1D
:10014400E0920101B5D040E3E40EE092000140E00A
:10015400409304014EE2409302010895019000206F
:1001640039F0029408B885D0029408B882D0F6CF4A
:10017400089509D0103081F01130C9F0123069F0BF
:10018400133051F0F6CF403029F0433019F0142FDA
:1001940023E012271527089589CFA8B5B7B5BA95D6
:1001A400AB1709F483CFA395A8BDAADF7FCFA8B569
:1001B400AA2309F47BCFAA95A8BDA2DF77CFE3E2F7
:1001C400E4BDE9E0E5BDE8ECE7BD089558D0A3E05F
:1001D40050D05FD0A3E0A8B94CD063D0A3E0A8B9B5
:1001E40048D05FD0A2E0A8B944D053D0A2E0A8B9C7
:1001F40040D057D0A8E0A8B93CD053D0A0E0A8B9CB
:1002040038D04FD0A8E0A8B934D04BD028D0A0E043
:10021400A8B92FD046D0A6E0A8B92BD03AD0A0E0F8
:10022400A8B927D03ED0ACE0A8B923D032D00895E5
:100234002D9837D0ACE0A8B91CD033D0A0E0A8B931
:1002440018D02D9A08952D982CD0A8E0A8B911D0D3
:1002540028D0A0E0A8B90DD01CD02D9A089521D0A3
:10026400A0E0A8B906D01DD0A1E0A8B902D011D051
:1002740008952B9816D02B9A14D02B98089526E025
:100284003FE042EF4A95F1F73A95E1F72A95D1F725
:10029400089525E332EF3A95F1F72A95E1F7000046
:1002A400089524E033E13A95F1F72A95E1F70895AA
:1002B400EE24FF1841E1001F111F4A9509F4089527
:1002C400EE1CFF1CE21AF30A20F4E20EF31E8894DB
:0602D400F2CF0894F0CF08
:00000001FF
